{
  "_format": "hh-sol-artifact-1",
  "contractName": "bearchainAI",
  "sourceName": "contracts/bearchainAI.sol",
  "abi": [
    {
      "inputs": [],
      "stateMutability": "nonpayable",
      "type": "constructor"
    },
    {
      "anonymous": false,
      "inputs": [
        {
          "indexed": true,
          "internalType": "address",
          "name": "owner",
          "type": "address"
        },
        {
          "indexed": true,
          "internalType": "address",
          "name": "approved",
          "type": "address"
        },
        {
          "indexed": true,
          "internalType": "uint256",
          "name": "tokenId",
          "type": "uint256"
        }
      ],
      "name": "Approval",
      "type": "event"
    },
    {
      "anonymous": false,
      "inputs": [
        {
          "indexed": true,
          "internalType": "address",
          "name": "owner",
          "type": "address"
        },
        {
          "indexed": true,
          "internalType": "address",
          "name": "operator",
          "type": "address"
        },
        {
          "indexed": false,
          "internalType": "bool",
          "name": "approved",
          "type": "bool"
        }
      ],
      "name": "ApprovalForAll",
      "type": "event"
    },
    {
      "anonymous": false,
      "inputs": [
        {
          "indexed": true,
          "internalType": "address",
          "name": "previousOwner",
          "type": "address"
        },
        {
          "indexed": true,
          "internalType": "address",
          "name": "newOwner",
          "type": "address"
        }
      ],
      "name": "OwnershipTransferred",
      "type": "event"
    },
    {
      "anonymous": false,
      "inputs": [
        {
          "indexed": true,
          "internalType": "address",
          "name": "from",
          "type": "address"
        },
        {
          "indexed": true,
          "internalType": "address",
          "name": "to",
          "type": "address"
        },
        {
          "indexed": true,
          "internalType": "uint256",
          "name": "tokenId",
          "type": "uint256"
        }
      ],
      "name": "Transfer",
      "type": "event"
    },
    {
      "inputs": [],
      "name": "_tokenIdCounter",
      "outputs": [
        {
          "internalType": "uint256",
          "name": "_value",
          "type": "uint256"
        }
      ],
      "stateMutability": "view",
      "type": "function"
    },
    {
      "inputs": [
        {
          "internalType": "address",
          "name": "to",
          "type": "address"
        },
        {
          "internalType": "uint256",
          "name": "tokenId",
          "type": "uint256"
        }
      ],
      "name": "approve",
      "outputs": [],
      "stateMutability": "nonpayable",
      "type": "function"
    },
    {
      "inputs": [
        {
          "internalType": "string",
          "name": "",
          "type": "string"
        }
      ],
      "name": "authorToKudos",
      "outputs": [
        {
          "internalType": "uint256",
          "name": "",
          "type": "uint256"
        }
      ],
      "stateMutability": "view",
      "type": "function"
    },
    {
      "inputs": [
        {
          "internalType": "uint256",
          "name": "",
          "type": "uint256"
        }
      ],
      "name": "authors",
      "outputs": [
        {
          "internalType": "string",
          "name": "",
          "type": "string"
        }
      ],
      "stateMutability": "view",
      "type": "function"
    },
    {
      "inputs": [
        {
          "internalType": "address",
          "name": "owner",
          "type": "address"
        }
      ],
      "name": "balanceOf",
      "outputs": [
        {
          "internalType": "uint256",
          "name": "",
          "type": "uint256"
        }
      ],
      "stateMutability": "view",
      "type": "function"
    },
    {
      "inputs": [],
      "name": "external_url",
      "outputs": [
        {
          "internalType": "string",
          "name": "",
          "type": "string"
        }
      ],
      "stateMutability": "view",
      "type": "function"
    },
    {
      "inputs": [
        {
          "internalType": "uint256",
          "name": "tokenId",
          "type": "uint256"
        }
      ],
      "name": "getApproved",
      "outputs": [
        {
          "internalType": "address",
          "name": "",
          "type": "address"
        }
      ],
      "stateMutability": "view",
      "type": "function"
    },
    {
      "inputs": [],
      "name": "image_data_url",
      "outputs": [
        {
          "internalType": "string",
          "name": "",
          "type": "string"
        }
      ],
      "stateMutability": "view",
      "type": "function"
    },
    {
      "inputs": [
        {
          "internalType": "address",
          "name": "owner",
          "type": "address"
        },
        {
          "internalType": "address",
          "name": "operator",
          "type": "address"
        }
      ],
      "name": "isApprovedForAll",
      "outputs": [
        {
          "internalType": "bool",
          "name": "",
          "type": "bool"
        }
      ],
      "stateMutability": "view",
      "type": "function"
    },
    {
      "inputs": [
        {
          "internalType": "string",
          "name": "title",
          "type": "string"
        },
        {
          "internalType": "string",
          "name": "content",
          "type": "string"
        },
        {
          "internalType": "string",
          "name": "fandom",
          "type": "string"
        },
        {
          "components": [
            {
              "internalType": "string",
              "name": "author",
              "type": "string"
            },
            {
              "internalType": "uint256",
              "name": "cites",
              "type": "uint256"
            }
          ],
          "internalType": "struct bearchainAI.Kudo[]",
          "name": "kudos",
          "type": "tuple[]"
        }
      ],
      "name": "mint",
      "outputs": [],
      "stateMutability": "nonpayable",
      "type": "function"
    },
    {
      "inputs": [],
      "name": "name",
      "outputs": [
        {
          "internalType": "string",
          "name": "",
          "type": "string"
        }
      ],
      "stateMutability": "view",
      "type": "function"
    },
    {
      "inputs": [],
      "name": "owner",
      "outputs": [
        {
          "internalType": "address",
          "name": "",
          "type": "address"
        }
      ],
      "stateMutability": "view",
      "type": "function"
    },
    {
      "inputs": [
        {
          "internalType": "uint256",
          "name": "tokenId",
          "type": "uint256"
        }
      ],
      "name": "ownerOf",
      "outputs": [
        {
          "internalType": "address",
          "name": "",
          "type": "address"
        }
      ],
      "stateMutability": "view",
      "type": "function"
    },
    {
      "inputs": [],
      "name": "renounceOwnership",
      "outputs": [],
      "stateMutability": "nonpayable",
      "type": "function"
    },
    {
      "inputs": [
        {
          "internalType": "address",
          "name": "from",
          "type": "address"
        },
        {
          "internalType": "address",
          "name": "to",
          "type": "address"
        },
        {
          "internalType": "uint256",
          "name": "tokenId",
          "type": "uint256"
        }
      ],
      "name": "safeTransferFrom",
      "outputs": [],
      "stateMutability": "nonpayable",
      "type": "function"
    },
    {
      "inputs": [
        {
          "internalType": "address",
          "name": "from",
          "type": "address"
        },
        {
          "internalType": "address",
          "name": "to",
          "type": "address"
        },
        {
          "internalType": "uint256",
          "name": "tokenId",
          "type": "uint256"
        },
        {
          "internalType": "bytes",
          "name": "data",
          "type": "bytes"
        }
      ],
      "name": "safeTransferFrom",
      "outputs": [],
      "stateMutability": "nonpayable",
      "type": "function"
    },
    {
      "inputs": [
        {
          "internalType": "address",
          "name": "operator",
          "type": "address"
        },
        {
          "internalType": "bool",
          "name": "approved",
          "type": "bool"
        }
      ],
      "name": "setApprovalForAll",
      "outputs": [],
      "stateMutability": "nonpayable",
      "type": "function"
    },
    {
      "inputs": [
        {
          "internalType": "string",
          "name": "_url",
          "type": "string"
        }
      ],
      "name": "setExternalUrl",
      "outputs": [],
      "stateMutability": "nonpayable",
      "type": "function"
    },
    {
      "inputs": [
        {
          "internalType": "string",
          "name": "_url",
          "type": "string"
        }
      ],
      "name": "setImageDataUrl",
      "outputs": [],
      "stateMutability": "nonpayable",
      "type": "function"
    },
    {
      "inputs": [
        {
          "internalType": "bytes4",
          "name": "interfaceId",
          "type": "bytes4"
        }
      ],
      "name": "supportsInterface",
      "outputs": [
        {
          "internalType": "bool",
          "name": "",
          "type": "bool"
        }
      ],
      "stateMutability": "view",
      "type": "function"
    },
    {
      "inputs": [],
      "name": "symbol",
      "outputs": [
        {
          "internalType": "string",
          "name": "",
          "type": "string"
        }
      ],
      "stateMutability": "view",
      "type": "function"
    },
    {
      "inputs": [
        {
          "internalType": "uint256",
          "name": "",
          "type": "uint256"
        }
      ],
      "name": "tokenIdToFanfic",
      "outputs": [
        {
          "internalType": "string",
          "name": "title",
          "type": "string"
        },
        {
          "internalType": "string",
          "name": "content",
          "type": "string"
        },
        {
          "internalType": "string",
          "name": "fandom",
          "type": "string"
        }
      ],
      "stateMutability": "view",
      "type": "function"
    },
    {
      "inputs": [
        {
          "internalType": "uint256",
          "name": "tokenId",
          "type": "uint256"
        }
      ],
      "name": "tokenURI",
      "outputs": [
        {
          "internalType": "string",
          "name": "",
          "type": "string"
        }
      ],
      "stateMutability": "view",
      "type": "function"
    },
    {
      "inputs": [],
      "name": "totalAuthors",
      "outputs": [
        {
          "internalType": "uint256",
          "name": "",
          "type": "uint256"
        }
      ],
      "stateMutability": "view",
      "type": "function"
    },
    {
      "inputs": [
        {
          "internalType": "address",
          "name": "from",
          "type": "address"
        },
        {
          "internalType": "address",
          "name": "to",
          "type": "address"
        },
        {
          "internalType": "uint256",
          "name": "tokenId",
          "type": "uint256"
        }
      ],
      "name": "transferFrom",
      "outputs": [],
      "stateMutability": "nonpayable",
      "type": "function"
    },
    {
      "inputs": [
        {
          "internalType": "address",
          "name": "newOwner",
          "type": "address"
        }
      ],
      "name": "transferOwnership",
      "outputs": [],
      "stateMutability": "nonpayable",
      "type": "function"
    }
  ],
  "bytecode": "0x60806040526040518060400160405280601c81526020017f68747470733a2f2f6578616d706c652e636f6d2f6578706c6f72652f00000000815250600c90816200004a919062000484565b5060405180606001604052806021815260200162004a9960219139600d908162000075919062000484565b503480156200008357600080fd5b506040518060400160405280600b81526020017f62656172636861696e41490000000000000000000000000000000000000000008152506040518060400160405280600581526020017f4243484149000000000000000000000000000000000000000000000000000000815250816000908162000101919062000484565b50806001908162000113919062000484565b505050620001366200012a6200013c60201b60201c565b6200014460201b60201c565b6200056b565b600033905090565b6000600760009054906101000a900473ffffffffffffffffffffffffffffffffffffffff16905081600760006101000a81548173ffffffffffffffffffffffffffffffffffffffff021916908373ffffffffffffffffffffffffffffffffffffffff1602179055508173ffffffffffffffffffffffffffffffffffffffff168173ffffffffffffffffffffffffffffffffffffffff167f8be0079c531659141344cd1fd0a4f28419497f9722a3daafe3b4186f6b6457e060405160405180910390a35050565b600081519050919050565b7f4e487b7100000000000000000000000000000000000000000000000000000000600052604160045260246000fd5b7f4e487b7100000000000000000000000000000000000000000000000000000000600052602260045260246000fd5b600060028204905060018216806200028c57607f821691505b602082108103620002a257620002a162000244565b5b50919050565b60008190508160005260206000209050919050565b60006020601f8301049050919050565b600082821b905092915050565b6000600883026200030c7fffffffffffffffffffffffffffffffffffffffffffffffffffffffffffffffff82620002cd565b620003188683620002cd565b95508019841693508086168417925050509392505050565b6000819050919050565b6000819050919050565b6000620003656200035f620003598462000330565b6200033a565b62000330565b9050919050565b6000819050919050565b620003818362000344565b6200039962000390826200036c565b848454620002da565b825550505050565b600090565b620003b0620003a1565b620003bd81848462000376565b505050565b5b81811015620003e557620003d9600082620003a6565b600181019050620003c3565b5050565b601f8211156200043457620003fe81620002a8565b6200040984620002bd565b8101602085101562000419578190505b620004316200042885620002bd565b830182620003c2565b50505b505050565b600082821c905092915050565b6000620004596000198460080262000439565b1980831691505092915050565b600062000474838362000446565b9150826002028217905092915050565b6200048f826200020a565b67ffffffffffffffff811115620004ab57620004aa62000215565b5b620004b7825462000273565b620004c4828285620003e9565b600060209050601f831160018114620004fc5760008415620004e7578287015190505b620004f3858262000466565b86555062000563565b601f1984166200050c86620002a8565b60005b8281101562000536578489015182556001820191506020850194506020810190506200050f565b8683101562000556578489015162000552601f89168262000446565b8355505b6001600288020188555050505b505050505050565b61451e806200057b6000396000f3fe608060405234801561001057600080fd5b506004361061018e5760003560e01c806384c4bd4b116100de578063aa6d52e311610097578063c87b56dd11610071578063c87b56dd14610485578063e41146ec146104b5578063e985e9c5146104d1578063f2fde38b146105015761018e565b8063aa6d52e314610419578063b88d4fde1461044b578063c2827051146104675761018e565b806384c4bd4b146103555780638da5cb5b1461037357806395bc77be1461039157806395d89b41146103af578063a0237fcb146103cd578063a22cb465146103fd5761018e565b80632a78ff371161014b5780636352211e116101255780636352211e146102cd57806370a08231146102fd578063715018a61461032d57806381999a7a146103375761018e565b80632a78ff37146102655780633db804da1461028157806342842e0e146102b15761018e565b806301ffc9a71461019357806306fdde03146101c3578063081812fc146101e1578063095ea7b31461021157806323b872dd1461022d57806326d58ad314610249575b600080fd5b6101ad60048036038101906101a8919061284d565b61051d565b6040516101ba9190612895565b60405180910390f35b6101cb6105ff565b6040516101d89190612940565b60405180910390f35b6101fb60048036038101906101f69190612998565b610691565b6040516102089190612a06565b60405180910390f35b61022b60048036038101906102269190612a4d565b6106d7565b005b61024760048036038101906102429190612a8d565b6107ee565b005b610263600480360381019061025e9190612c15565b61084e565b005b61027f600480360381019061027a9190612c15565b610869565b005b61029b60048036038101906102969190612998565b610884565b6040516102a89190612940565b60405180910390f35b6102cb60048036038101906102c69190612a8d565b610930565b005b6102e760048036038101906102e29190612998565b610950565b6040516102f49190612a06565b60405180910390f35b61031760048036038101906103129190612c5e565b6109d6565b6040516103249190612c9a565b60405180910390f35b610335610a8d565b005b61033f610aa1565b60405161034c9190612940565b60405180910390f35b61035d610b2f565b60405161036a9190612c9a565b60405180910390f35b61037b610b3b565b6040516103889190612a06565b60405180910390f35b610399610b65565b6040516103a69190612c9a565b60405180910390f35b6103b7610b72565b6040516103c49190612940565b60405180910390f35b6103e760048036038101906103e29190612c15565b610c04565b6040516103f49190612c9a565b60405180910390f35b61041760048036038101906104129190612ce1565b610c32565b005b610433600480360381019061042e9190612998565b610c48565b60405161044293929190612d21565b60405180910390f35b61046560048036038101906104609190612e0e565b610e0a565b005b61046f610e6c565b60405161047c9190612940565b60405180910390f35b61049f600480360381019061049a9190612998565b610efa565b6040516104ac9190612940565b60405180910390f35b6104cf60048036038101906104ca9190612fed565b6112a4565b005b6104eb60048036038101906104e691906130c4565b611532565b6040516104f89190612895565b60405180910390f35b61051b60048036038101906105169190612c5e565b6115c6565b005b60007f80ac58cd000000000000000000000000000000000000000000000000000000007bffffffffffffffffffffffffffffffffffffffffffffffffffffffff1916827bffffffffffffffffffffffffffffffffffffffffffffffffffffffff191614806105e857507f5b5e139f000000000000000000000000000000000000000000000000000000007bffffffffffffffffffffffffffffffffffffffffffffffffffffffff1916827bffffffffffffffffffffffffffffffffffffffffffffffffffffffff1916145b806105f857506105f782611649565b5b9050919050565b60606000805461060e90613133565b80601f016020809104026020016040519081016040528092919081815260200182805461063a90613133565b80156106875780601f1061065c57610100808354040283529160200191610687565b820191906000526020600020905b81548152906001019060200180831161066a57829003601f168201915b5050505050905090565b600061069c826116b3565b6004600083815260200190815260200160002060009054906101000a900473ffffffffffffffffffffffffffffffffffffffff169050919050565b60006106e282610950565b90508073ffffffffffffffffffffffffffffffffffffffff168373ffffffffffffffffffffffffffffffffffffffff1603610752576040517f08c379a0000000000000000000000000000000000000000000000000000000008152600401610749906131d6565b60405180910390fd5b8073ffffffffffffffffffffffffffffffffffffffff166107716116fe565b73ffffffffffffffffffffffffffffffffffffffff1614806107a0575061079f8161079a6116fe565b611532565b5b6107df576040517f08c379a00000000000000000000000000000000000000000000000000000000081526004016107d690613268565b60405180910390fd5b6107e98383611706565b505050565b6107ff6107f96116fe565b826117bf565b61083e576040517f08c379a0000000000000000000000000000000000000000000000000000000008152600401610835906132fa565b60405180910390fd5b610849838383611854565b505050565b610856611b4d565b80600c908161086591906134c6565b5050565b610871611b4d565b80600d908161088091906134c6565b5050565b600b818154811061089457600080fd5b9060005260206000200160009150905080546108af90613133565b80601f01602080910402602001604051908101604052809291908181526020018280546108db90613133565b80156109285780601f106108fd57610100808354040283529160200191610928565b820191906000526020600020905b81548152906001019060200180831161090b57829003601f168201915b505050505081565b61094b83838360405180602001604052806000815250610e0a565b505050565b60008061095c83611bcb565b9050600073ffffffffffffffffffffffffffffffffffffffff168173ffffffffffffffffffffffffffffffffffffffff16036109cd576040517f08c379a00000000000000000000000000000000000000000000000000000000081526004016109c4906135e4565b60405180910390fd5b80915050919050565b60008073ffffffffffffffffffffffffffffffffffffffff168273ffffffffffffffffffffffffffffffffffffffff1603610a46576040517f08c379a0000000000000000000000000000000000000000000000000000000008152600401610a3d90613676565b60405180910390fd5b600360008373ffffffffffffffffffffffffffffffffffffffff1673ffffffffffffffffffffffffffffffffffffffff168152602001908152602001600020549050919050565b610a95611b4d565b610a9f6000611c08565b565b600d8054610aae90613133565b80601f0160208091040260200160405190810160405280929190818152602001828054610ada90613133565b8015610b275780601f10610afc57610100808354040283529160200191610b27565b820191906000526020600020905b815481529060010190602001808311610b0a57829003601f168201915b505050505081565b60088060000154905081565b6000600760009054906101000a900473ffffffffffffffffffffffffffffffffffffffff16905090565b6000600b80549050905090565b606060018054610b8190613133565b80601f0160208091040260200160405190810160405280929190818152602001828054610bad90613133565b8015610bfa5780601f10610bcf57610100808354040283529160200191610bfa565b820191906000526020600020905b815481529060010190602001808311610bdd57829003601f168201915b5050505050905090565b600a818051602081018201805184825260208301602085012081835280955050505050506000915090505481565b610c44610c3d6116fe565b8383611cce565b5050565b6009602052806000526040600020600091509050806000018054610c6b90613133565b80601f0160208091040260200160405190810160405280929190818152602001828054610c9790613133565b8015610ce45780601f10610cb957610100808354040283529160200191610ce4565b820191906000526020600020905b815481529060010190602001808311610cc757829003601f168201915b505050505090806001018054610cf990613133565b80601f0160208091040260200160405190810160405280929190818152602001828054610d2590613133565b8015610d725780601f10610d4757610100808354040283529160200191610d72565b820191906000526020600020905b815481529060010190602001808311610d5557829003601f168201915b505050505090806002018054610d8790613133565b80601f0160208091040260200160405190810160405280929190818152602001828054610db390613133565b8015610e005780601f10610dd557610100808354040283529160200191610e00565b820191906000526020600020905b815481529060010190602001808311610de357829003601f168201915b5050505050905083565b610e1b610e156116fe565b836117bf565b610e5a576040517f08c379a0000000000000000000000000000000000000000000000000000000008152600401610e51906132fa565b60405180910390fd5b610e6684848484611e3a565b50505050565b600c8054610e7990613133565b80601f0160208091040260200160405190810160405280929190818152602001828054610ea590613133565b8015610ef25780601f10610ec757610100808354040283529160200191610ef2565b820191906000526020600020905b815481529060010190602001808311610ed557829003601f168201915b505050505081565b6060610f0582611e96565b610f44576040517f08c379a0000000000000000000000000000000000000000000000000000000008152600401610f3b90613708565b60405180910390fd5b6000610f4f83611ed7565b9050600060096000858152602001908152602001600020604051806080016040529081600082018054610f8190613133565b80601f0160208091040260200160405190810160405280929190818152602001828054610fad90613133565b8015610ffa5780601f10610fcf57610100808354040283529160200191610ffa565b820191906000526020600020905b815481529060010190602001808311610fdd57829003601f168201915b5050505050815260200160018201805461101390613133565b80601f016020809104026020016040519081016040528092919081815260200182805461103f90613133565b801561108c5780601f106110615761010080835404028352916020019161108c565b820191906000526020600020905b81548152906001019060200180831161106f57829003601f168201915b505050505081526020016002820180546110a590613133565b80601f01602080910402602001604051908101604052809291908181526020018280546110d190613133565b801561111e5780601f106110f35761010080835404028352916020019161111e565b820191906000526020600020905b81548152906001019060200180831161110157829003601f168201915b5050505050815260200160038201805480602002602001604051908101604052809291908181526020016000905b8282101561121a578382906000526020600020906002020160405180604001604052908160008201805461117f90613133565b80601f01602080910402602001604051908101604052809291908181526020018280546111ab90613133565b80156111f85780601f106111cd576101008083540402835291602001916111f8565b820191906000526020600020905b8154815290600101906020018083116111db57829003601f168201915b505050505081526020016001820154815250508152602001906001019061114c565b5050505081525050905060008282600001518360200151600c86600d886112448960600151611fa5565b896040015160405160200161126199989796959493929190613b51565b604051602081830303815290604052905061127b8161204e565b60405160200161128b9190613cb6565b6040516020818303038152906040529350505050919050565b60006112b060086121b1565b90506112bc60086121bf565b6112c633826121d5565b846009600083815260200190815260200160002060000190816112e991906134c6565b508360096000838152602001908152602001600020600101908161130d91906134c6565b508260096000838152602001908152602001600020600201908161133191906134c6565b5060005b82518110156114035760096000838152602001908152602001600020600301604051806040016040528085848151811061137257611371613cd8565b5b602002602001015160000151815260200185848151811061139657611395613cd8565b5b602002602001015160200151815250908060018154018082558091505060019003906000526020600020906002020160009091909190915060008201518160000190816113e391906134c6565b5060208201518160010155505080806113fb90613d36565b915050611335565b506114168161141183610efa565b6121f3565b60005b825181101561152a57600083828151811061143757611436613cd8565b5b602002602001015190506000600a82600001516040516114579190613d7e565b908152602001604051809103902054036114a557600b81600001519080600181540180825580915050600190039060005260206000200160009091909190915090816114a391906134c6565b505b8382815181106114b8576114b7613cd8565b5b602002602001015160200151600a8584815181106114d9576114d8613cd8565b5b6020026020010151600001516040516114f29190613d7e565b9081526020016040518091039020600082825461150f9190613d95565b9250508190555050808061152290613d36565b915050611419565b505050505050565b6000600560008473ffffffffffffffffffffffffffffffffffffffff1673ffffffffffffffffffffffffffffffffffffffff16815260200190815260200160002060008373ffffffffffffffffffffffffffffffffffffffff1673ffffffffffffffffffffffffffffffffffffffff16815260200190815260200160002060009054906101000a900460ff16905092915050565b6115ce611b4d565b600073ffffffffffffffffffffffffffffffffffffffff168173ffffffffffffffffffffffffffffffffffffffff160361163d576040517f08c379a000000000000000000000000000000000000000000000000000000000815260040161163490613e3b565b60405180910390fd5b61164681611c08565b50565b60007f01ffc9a7000000000000000000000000000000000000000000000000000000007bffffffffffffffffffffffffffffffffffffffffffffffffffffffff1916827bffffffffffffffffffffffffffffffffffffffffffffffffffffffff1916149050919050565b6116bc81611e96565b6116fb576040517f08c379a00000000000000000000000000000000000000000000000000000000081526004016116f2906135e4565b60405180910390fd5b50565b600033905090565b816004600083815260200190815260200160002060006101000a81548173ffffffffffffffffffffffffffffffffffffffff021916908373ffffffffffffffffffffffffffffffffffffffff160217905550808273ffffffffffffffffffffffffffffffffffffffff1661177983610950565b73ffffffffffffffffffffffffffffffffffffffff167f8c5be1e5ebec7d5bd14f71427d1e84f3dd0314c0f7b2291e5b200ac8c7c3b92560405160405180910390a45050565b6000806117cb83610950565b90508073ffffffffffffffffffffffffffffffffffffffff168473ffffffffffffffffffffffffffffffffffffffff16148061180d575061180c8185611532565b5b8061184b57508373ffffffffffffffffffffffffffffffffffffffff1661183384610691565b73ffffffffffffffffffffffffffffffffffffffff16145b91505092915050565b8273ffffffffffffffffffffffffffffffffffffffff1661187482610950565b73ffffffffffffffffffffffffffffffffffffffff16146118ca576040517f08c379a00000000000000000000000000000000000000000000000000000000081526004016118c190613ecd565b60405180910390fd5b600073ffffffffffffffffffffffffffffffffffffffff168273ffffffffffffffffffffffffffffffffffffffff1603611939576040517f08c379a000000000000000000000000000000000000000000000000000000000815260040161193090613f5f565b60405180910390fd5b6119468383836001612260565b8273ffffffffffffffffffffffffffffffffffffffff1661196682610950565b73ffffffffffffffffffffffffffffffffffffffff16146119bc576040517f08c379a00000000000000000000000000000000000000000000000000000000081526004016119b390613ecd565b60405180910390fd5b6004600082815260200190815260200160002060006101000a81549073ffffffffffffffffffffffffffffffffffffffff02191690556001600360008573ffffffffffffffffffffffffffffffffffffffff1673ffffffffffffffffffffffffffffffffffffffff168152602001908152602001600020600082825403925050819055506001600360008473ffffffffffffffffffffffffffffffffffffffff1673ffffffffffffffffffffffffffffffffffffffff16815260200190815260200160002060008282540192505081905550816002600083815260200190815260200160002060006101000a81548173ffffffffffffffffffffffffffffffffffffffff021916908373ffffffffffffffffffffffffffffffffffffffff160217905550808273ffffffffffffffffffffffffffffffffffffffff168473ffffffffffffffffffffffffffffffffffffffff167fddf252ad1be2c89b69c2b068fc378daa952ba7f163c4a11628f55a4df523b3ef60405160405180910390a4611b488383836001612266565b505050565b611b556116fe565b73ffffffffffffffffffffffffffffffffffffffff16611b73610b3b565b73ffffffffffffffffffffffffffffffffffffffff1614611bc9576040517f08c379a0000000000000000000000000000000000000000000000000000000008152600401611bc090613fcb565b60405180910390fd5b565b60006002600083815260200190815260200160002060009054906101000a900473ffffffffffffffffffffffffffffffffffffffff169050919050565b6000600760009054906101000a900473ffffffffffffffffffffffffffffffffffffffff16905081600760006101000a81548173ffffffffffffffffffffffffffffffffffffffff021916908373ffffffffffffffffffffffffffffffffffffffff1602179055508173ffffffffffffffffffffffffffffffffffffffff168173ffffffffffffffffffffffffffffffffffffffff167f8be0079c531659141344cd1fd0a4f28419497f9722a3daafe3b4186f6b6457e060405160405180910390a35050565b8173ffffffffffffffffffffffffffffffffffffffff168373ffffffffffffffffffffffffffffffffffffffff1603611d3c576040517f08c379a0000000000000000000000000000000000000000000000000000000008152600401611d3390614037565b60405180910390fd5b80600560008573ffffffffffffffffffffffffffffffffffffffff1673ffffffffffffffffffffffffffffffffffffffff16815260200190815260200160002060008473ffffffffffffffffffffffffffffffffffffffff1673ffffffffffffffffffffffffffffffffffffffff16815260200190815260200160002060006101000a81548160ff0219169083151502179055508173ffffffffffffffffffffffffffffffffffffffff168373ffffffffffffffffffffffffffffffffffffffff167f17307eab39ab6107e8899845ad3d59bd9653f200f220920489ca2b5937696c3183604051611e2d9190612895565b60405180910390a3505050565b611e45848484611854565b611e518484848461226c565b611e90576040517f08c379a0000000000000000000000000000000000000000000000000000000008152600401611e87906140c9565b60405180910390fd5b50505050565b60008073ffffffffffffffffffffffffffffffffffffffff16611eb883611bcb565b73ffffffffffffffffffffffffffffffffffffffff1614159050919050565b606060006001611ee6846123f3565b01905060008167ffffffffffffffff811115611f0557611f04612aea565b5b6040519080825280601f01601f191660200182016040528015611f375781602001600182028036833780820191505090505b509050600082602001820190505b600115611f9a578080600190039150507f3031323334353637383961626364656600000000000000000000000000000000600a86061a8153600a8581611f8e57611f8d6140e9565b5b04945060008503611f45575b819350505050919050565b6060600060405180602001604052806000815250905060005b83518110156120445781848281518110611fdb57611fda613cd8565b5b60200260200101516000015161200e868481518110611ffd57611ffc613cd8565b5b602002602001015160200151611ed7565b6040516020016120209392919061418a565b6040516020818303038152906040529150808061203c90613d36565b915050611fbe565b5080915050919050565b60606000825103612070576040518060200160405280600081525090506121ac565b60006040518060600160405280604081526020016144a9604091399050600060036002855161209f9190613d95565b6120a991906141e8565b60046120b59190614219565b67ffffffffffffffff8111156120ce576120cd612aea565b5b6040519080825280601f01601f1916602001820160405280156121005781602001600182028036833780820191505090505b509050600182016020820185865187015b8082101561216c576003820191508151603f8160121c168501518453600184019350603f81600c1c168501518453600184019350603f8160061c168501518453600184019350603f8116850151845360018401935050612111565b5050600386510660018114612188576002811461219b576121a3565b603d6001830353603d60028303536121a3565b603d60018303535b50505080925050505b919050565b600081600001549050919050565b6001816000016000828254019250508190555050565b6121ef828260405180602001604052806000815250612546565b5050565b6121fc82611e96565b61223b576040517f08c379a0000000000000000000000000000000000000000000000000000000008152600401612232906142cd565b60405180910390fd5b8060066000848152602001908152602001600020908161225b91906134c6565b505050565b50505050565b50505050565b600061228d8473ffffffffffffffffffffffffffffffffffffffff166125a1565b156123e6578373ffffffffffffffffffffffffffffffffffffffff1663150b7a026122b66116fe565b8786866040518563ffffffff1660e01b81526004016122d89493929190614342565b6020604051808303816000875af192505050801561231457506040513d601f19601f8201168201806040525081019061231191906143a3565b60015b612396573d8060008114612344576040519150601f19603f3d011682016040523d82523d6000602084013e612349565b606091505b50600081510361238e576040517f08c379a0000000000000000000000000000000000000000000000000000000008152600401612385906140c9565b60405180910390fd5b805181602001fd5b63150b7a0260e01b7bffffffffffffffffffffffffffffffffffffffffffffffffffffffff1916817bffffffffffffffffffffffffffffffffffffffffffffffffffffffff1916149150506123eb565b600190505b949350505050565b600080600090507a184f03e93ff9f4daa797ed6e38ed64bf6a1f0100000000000000008310612451577a184f03e93ff9f4daa797ed6e38ed64bf6a1f0100000000000000008381612447576124466140e9565b5b0492506040810190505b6d04ee2d6d415b85acef8100000000831061248e576d04ee2d6d415b85acef81000000008381612484576124836140e9565b5b0492506020810190505b662386f26fc1000083106124bd57662386f26fc1000083816124b3576124b26140e9565b5b0492506010810190505b6305f5e10083106124e6576305f5e10083816124dc576124db6140e9565b5b0492506008810190505b612710831061250b576127108381612501576125006140e9565b5b0492506004810190505b6064831061252e5760648381612524576125236140e9565b5b0492506002810190505b600a831061253d576001810190505b80915050919050565b61255083836125c4565b61255d600084848461226c565b61259c576040517f08c379a0000000000000000000000000000000000000000000000000000000008152600401612593906140c9565b60405180910390fd5b505050565b6000808273ffffffffffffffffffffffffffffffffffffffff163b119050919050565b600073ffffffffffffffffffffffffffffffffffffffff168273ffffffffffffffffffffffffffffffffffffffff1603612633576040517f08c379a000000000000000000000000000000000000000000000000000000000815260040161262a9061441c565b60405180910390fd5b61263c81611e96565b1561267c576040517f08c379a000000000000000000000000000000000000000000000000000000000815260040161267390614488565b60405180910390fd5b61268a600083836001612260565b61269381611e96565b156126d3576040517f08c379a00000000000000000000000000000000000000000000000000000000081526004016126ca90614488565b60405180910390fd5b6001600360008473ffffffffffffffffffffffffffffffffffffffff1673ffffffffffffffffffffffffffffffffffffffff16815260200190815260200160002060008282540192505081905550816002600083815260200190815260200160002060006101000a81548173ffffffffffffffffffffffffffffffffffffffff021916908373ffffffffffffffffffffffffffffffffffffffff160217905550808273ffffffffffffffffffffffffffffffffffffffff16600073ffffffffffffffffffffffffffffffffffffffff167fddf252ad1be2c89b69c2b068fc378daa952ba7f163c4a11628f55a4df523b3ef60405160405180910390a46127dd600083836001612266565b5050565b6000604051905090565b600080fd5b600080fd5b60007fffffffff0000000000000000000000000000000000000000000000000000000082169050919050565b61282a816127f5565b811461283557600080fd5b50565b60008135905061284781612821565b92915050565b600060208284031215612863576128626127eb565b5b600061287184828501612838565b91505092915050565b60008115159050919050565b61288f8161287a565b82525050565b60006020820190506128aa6000830184612886565b92915050565b600081519050919050565b600082825260208201905092915050565b60005b838110156128ea5780820151818401526020810190506128cf565b60008484015250505050565b6000601f19601f8301169050919050565b6000612912826128b0565b61291c81856128bb565b935061292c8185602086016128cc565b612935816128f6565b840191505092915050565b6000602082019050818103600083015261295a8184612907565b905092915050565b6000819050919050565b61297581612962565b811461298057600080fd5b50565b6000813590506129928161296c565b92915050565b6000602082840312156129ae576129ad6127eb565b5b60006129bc84828501612983565b91505092915050565b600073ffffffffffffffffffffffffffffffffffffffff82169050919050565b60006129f0826129c5565b9050919050565b612a00816129e5565b82525050565b6000602082019050612a1b60008301846129f7565b92915050565b612a2a816129e5565b8114612a3557600080fd5b50565b600081359050612a4781612a21565b92915050565b60008060408385031215612a6457612a636127eb565b5b6000612a7285828601612a38565b9250506020612a8385828601612983565b9150509250929050565b600080600060608486031215612aa657612aa56127eb565b5b6000612ab486828701612a38565b9350506020612ac586828701612a38565b9250506040612ad686828701612983565b9150509250925092565b600080fd5b600080fd5b7f4e487b7100000000000000000000000000000000000000000000000000000000600052604160045260246000fd5b612b22826128f6565b810181811067ffffffffffffffff82111715612b4157612b40612aea565b5b80604052505050565b6000612b546127e1565b9050612b608282612b19565b919050565b600067ffffffffffffffff821115612b8057612b7f612aea565b5b612b89826128f6565b9050602081019050919050565b82818337600083830152505050565b6000612bb8612bb384612b65565b612b4a565b905082815260208101848484011115612bd457612bd3612ae5565b5b612bdf848285612b96565b509392505050565b600082601f830112612bfc57612bfb612ae0565b5b8135612c0c848260208601612ba5565b91505092915050565b600060208284031215612c2b57612c2a6127eb565b5b600082013567ffffffffffffffff811115612c4957612c486127f0565b5b612c5584828501612be7565b91505092915050565b600060208284031215612c7457612c736127eb565b5b6000612c8284828501612a38565b91505092915050565b612c9481612962565b82525050565b6000602082019050612caf6000830184612c8b565b92915050565b612cbe8161287a565b8114612cc957600080fd5b50565b600081359050612cdb81612cb5565b92915050565b60008060408385031215612cf857612cf76127eb565b5b6000612d0685828601612a38565b9250506020612d1785828601612ccc565b9150509250929050565b60006060820190508181036000830152612d3b8186612907565b90508181036020830152612d4f8185612907565b90508181036040830152612d638184612907565b9050949350505050565b600067ffffffffffffffff821115612d8857612d87612aea565b5b612d91826128f6565b9050602081019050919050565b6000612db1612dac84612d6d565b612b4a565b905082815260208101848484011115612dcd57612dcc612ae5565b5b612dd8848285612b96565b509392505050565b600082601f830112612df557612df4612ae0565b5b8135612e05848260208601612d9e565b91505092915050565b60008060008060808587031215612e2857612e276127eb565b5b6000612e3687828801612a38565b9450506020612e4787828801612a38565b9350506040612e5887828801612983565b925050606085013567ffffffffffffffff811115612e7957612e786127f0565b5b612e8587828801612de0565b91505092959194509250565b600067ffffffffffffffff821115612eac57612eab612aea565b5b602082029050602081019050919050565b600080fd5b600080fd5b600080fd5b600060408284031215612ee257612ee1612ec2565b5b612eec6040612b4a565b9050600082013567ffffffffffffffff811115612f0c57612f0b612ec7565b5b612f1884828501612be7565b6000830152506020612f2c84828501612983565b60208301525092915050565b6000612f4b612f4684612e91565b612b4a565b90508083825260208201905060208402830185811115612f6e57612f6d612ebd565b5b835b81811015612fb557803567ffffffffffffffff811115612f9357612f92612ae0565b5b808601612fa08982612ecc565b85526020850194505050602081019050612f70565b5050509392505050565b600082601f830112612fd457612fd3612ae0565b5b8135612fe4848260208601612f38565b91505092915050565b60008060008060808587031215613007576130066127eb565b5b600085013567ffffffffffffffff811115613025576130246127f0565b5b61303187828801612be7565b945050602085013567ffffffffffffffff811115613052576130516127f0565b5b61305e87828801612be7565b935050604085013567ffffffffffffffff81111561307f5761307e6127f0565b5b61308b87828801612be7565b925050606085013567ffffffffffffffff8111156130ac576130ab6127f0565b5b6130b887828801612fbf565b91505092959194509250565b600080604083850312156130db576130da6127eb565b5b60006130e985828601612a38565b92505060206130fa85828601612a38565b9150509250929050565b7f4e487b7100000000000000000000000000000000000000000000000000000000600052602260045260246000fd5b6000600282049050600182168061314b57607f821691505b60208210810361315e5761315d613104565b5b50919050565b7f4552433732313a20617070726f76616c20746f2063757272656e74206f776e6560008201527f7200000000000000000000000000000000000000000000000000000000000000602082015250565b60006131c06021836128bb565b91506131cb82613164565b604082019050919050565b600060208201905081810360008301526131ef816131b3565b9050919050565b7f4552433732313a20617070726f76652063616c6c6572206973206e6f7420746f60008201527f6b656e206f776e6572206f7220617070726f76656420666f7220616c6c000000602082015250565b6000613252603d836128bb565b915061325d826131f6565b604082019050919050565b6000602082019050818103600083015261328181613245565b9050919050565b7f4552433732313a2063616c6c6572206973206e6f7420746f6b656e206f776e6560008201527f72206f7220617070726f76656400000000000000000000000000000000000000602082015250565b60006132e4602d836128bb565b91506132ef82613288565b604082019050919050565b60006020820190508181036000830152613313816132d7565b9050919050565b60008190508160005260206000209050919050565b60006020601f8301049050919050565b600082821b905092915050565b60006008830261337c7fffffffffffffffffffffffffffffffffffffffffffffffffffffffffffffffff8261333f565b613386868361333f565b95508019841693508086168417925050509392505050565b6000819050919050565b60006133c36133be6133b984612962565b61339e565b612962565b9050919050565b6000819050919050565b6133dd836133a8565b6133f16133e9826133ca565b84845461334c565b825550505050565b600090565b6134066133f9565b6134118184846133d4565b505050565b5b818110156134355761342a6000826133fe565b600181019050613417565b5050565b601f82111561347a5761344b8161331a565b6134548461332f565b81016020851015613463578190505b61347761346f8561332f565b830182613416565b50505b505050565b600082821c905092915050565b600061349d6000198460080261347f565b1980831691505092915050565b60006134b6838361348c565b9150826002028217905092915050565b6134cf826128b0565b67ffffffffffffffff8111156134e8576134e7612aea565b5b6134f28254613133565b6134fd828285613439565b600060209050601f831160018114613530576000841561351e578287015190505b61352885826134aa565b865550613590565b601f19841661353e8661331a565b60005b8281101561356657848901518255600182019150602085019450602081019050613541565b86831015613583578489015161357f601f89168261348c565b8355505b6001600288020188555050505b505050505050565b7f4552433732313a20696e76616c696420746f6b656e2049440000000000000000600082015250565b60006135ce6018836128bb565b91506135d982613598565b602082019050919050565b600060208201905081810360008301526135fd816135c1565b9050919050565b7f4552433732313a2061646472657373207a65726f206973206e6f74206120766160008201527f6c6964206f776e65720000000000000000000000000000000000000000000000602082015250565b60006136606029836128bb565b915061366b82613604565b604082019050919050565b6000602082019050818103600083015261368f81613653565b9050919050565b7f4552433732314d657461646174613a2055524920717565727920666f72206e6f60008201527f6e6578697374656e7420746f6b656e0000000000000000000000000000000000602082015250565b60006136f2602f836128bb565b91506136fd82613696565b604082019050919050565b60006020820190508181036000830152613721816136e5565b9050919050565b600081905092915050565b7f7b00000000000000000000000000000000000000000000000000000000000000600082015250565b6000613769600183613728565b915061377482613733565b600182019050919050565b7f226e616d65223a202246616e6669632023000000000000000000000000000000600082015250565b60006137b5601183613728565b91506137c08261377f565b601182019050919050565b60006137d6826128b0565b6137e08185613728565b93506137f08185602086016128cc565b80840191505092915050565b7f3a20000000000000000000000000000000000000000000000000000000000000600082015250565b6000613832600283613728565b915061383d826137fc565b600282019050919050565b7f222c000000000000000000000000000000000000000000000000000000000000600082015250565b600061387e600283613728565b915061388982613848565b600282019050919050565b7f226465736372697074696f6e223a202200000000000000000000000000000000600082015250565b60006138ca601083613728565b91506138d582613894565b601082019050919050565b7f2265787465726e616c5f75726c223a2022000000000000000000000000000000600082015250565b6000613916601183613728565b9150613921826138e0565b601182019050919050565b6000815461393981613133565b6139438186613728565b9450600182166000811461395e5760018114613973576139a6565b60ff19831686528115158202860193506139a6565b61397c8561331a565b60005b8381101561399e5781548189015260018201915060208101905061397f565b838801955050505b50505092915050565b7f22696d6167655f64617461223a20220000000000000000000000000000000000600082015250565b60006139e5600f83613728565b91506139f0826139af565b600f82019050919050565b7f2261747472696275746573223a205b0000000000000000000000000000000000600082015250565b6000613a31600f83613728565b9150613a3c826139fb565b600f82019050919050565b7f7b2274726169745f7479706522203a202246616e646f6d222c202276616c756560008201527f223a202200000000000000000000000000000000000000000000000000000000602082015250565b6000613aa3602483613728565b9150613aae82613a47565b602482019050919050565b7f227d000000000000000000000000000000000000000000000000000000000000600082015250565b6000613aef600283613728565b9150613afa82613ab9565b600282019050919050565b7f5d7d000000000000000000000000000000000000000000000000000000000000600082015250565b6000613b3b600283613728565b9150613b4682613b05565b600282019050919050565b6000613b5c8261375c565b9150613b67826137a8565b9150613b73828c6137cb565b9150613b7e82613825565b9150613b8a828b6137cb565b9150613b9582613871565b9150613ba0826138bd565b9150613bac828a6137cb565b9150613bb782613871565b9150613bc282613909565b9150613bce828961392c565b9150613bda82886137cb565b9150613be582613871565b9150613bf0826139d8565b9150613bfc828761392c565b9150613c0882866137cb565b9150613c1382613871565b9150613c1e82613a24565b9150613c2a82856137cb565b9150613c3582613a96565b9150613c4182846137cb565b9150613c4c82613ae2565b9150613c5782613b2e565b91508190509a9950505050505050505050565b7f646174613a6170706c69636174696f6e2f6a736f6e3b6261736536342c000000600082015250565b6000613ca0601d83613728565b9150613cab82613c6a565b601d82019050919050565b6000613cc182613c93565b9150613ccd82846137cb565b915081905092915050565b7f4e487b7100000000000000000000000000000000000000000000000000000000600052603260045260246000fd5b7f4e487b7100000000000000000000000000000000000000000000000000000000600052601160045260246000fd5b6000613d4182612962565b91507fffffffffffffffffffffffffffffffffffffffffffffffffffffffffffffffff8203613d7357613d72613d07565b5b600182019050919050565b6000613d8a82846137cb565b915081905092915050565b6000613da082612962565b9150613dab83612962565b9250828201905080821115613dc357613dc2613d07565b5b92915050565b7f4f776e61626c653a206e6577206f776e657220697320746865207a65726f206160008201527f6464726573730000000000000000000000000000000000000000000000000000602082015250565b6000613e256026836128bb565b9150613e3082613dc9565b604082019050919050565b60006020820190508181036000830152613e5481613e18565b9050919050565b7f4552433732313a207472616e736665722066726f6d20696e636f72726563742060008201527f6f776e6572000000000000000000000000000000000000000000000000000000602082015250565b6000613eb76025836128bb565b9150613ec282613e5b565b604082019050919050565b60006020820190508181036000830152613ee681613eaa565b9050919050565b7f4552433732313a207472616e7366657220746f20746865207a65726f2061646460008201527f7265737300000000000000000000000000000000000000000000000000000000602082015250565b6000613f496024836128bb565b9150613f5482613eed565b604082019050919050565b60006020820190508181036000830152613f7881613f3c565b9050919050565b7f4f776e61626c653a2063616c6c6572206973206e6f7420746865206f776e6572600082015250565b6000613fb56020836128bb565b9150613fc082613f7f565b602082019050919050565b60006020820190508181036000830152613fe481613fa8565b9050919050565b7f4552433732313a20617070726f766520746f2063616c6c657200000000000000600082015250565b60006140216019836128bb565b915061402c82613feb565b602082019050919050565b6000602082019050818103600083015261405081614014565b9050919050565b7f4552433732313a207472616e7366657220746f206e6f6e20455243373231526560008201527f63656976657220696d706c656d656e7465720000000000000000000000000000602082015250565b60006140b36032836128bb565b91506140be82614057565b604082019050919050565b600060208201905081810360008301526140e2816140a6565b9050919050565b7f4e487b7100000000000000000000000000000000000000000000000000000000600052601260045260246000fd5b7f7b2274726169745f74797065223a202200000000000000000000000000000000815250565b7f222c202276616c7565223a200000000000000000000000000000000000000000815250565b7f7d2c000000000000000000000000000000000000000000000000000000000000815250565b600061419682866137cb565b91506141a182614118565b6010820191506141b182856137cb565b91506141bc8261413e565b600c820191506141cc82846137cb565b91506141d782614164565b600282019150819050949350505050565b60006141f382612962565b91506141fe83612962565b92508261420e5761420d6140e9565b5b828204905092915050565b600061422482612962565b915061422f83612962565b925082820261423d81612962565b9150828204841483151761425457614253613d07565b5b5092915050565b7f45524337323155524953746f726167653a2055524920736574206f66206e6f6e60008201527f6578697374656e7420746f6b656e000000000000000000000000000000000000602082015250565b60006142b7602e836128bb565b91506142c28261425b565b604082019050919050565b600060208201905081810360008301526142e6816142aa565b9050919050565b600081519050919050565b600082825260208201905092915050565b6000614314826142ed565b61431e81856142f8565b935061432e8185602086016128cc565b614337816128f6565b840191505092915050565b600060808201905061435760008301876129f7565b61436460208301866129f7565b6143716040830185612c8b565b81810360608301526143838184614309565b905095945050505050565b60008151905061439d81612821565b92915050565b6000602082840312156143b9576143b86127eb565b5b60006143c78482850161438e565b91505092915050565b7f4552433732313a206d696e7420746f20746865207a65726f2061646472657373600082015250565b60006144066020836128bb565b9150614411826143d0565b602082019050919050565b60006020820190508181036000830152614435816143f9565b9050919050565b7f4552433732313a20746f6b656e20616c7265616479206d696e74656400000000600082015250565b6000614472601c836128bb565b915061447d8261443c565b602082019050919050565b600060208201905081810360008301526144a181614465565b905091905056fe4142434445464748494a4b4c4d4e4f505152535455565758595a6162636465666768696a6b6c6d6e6f707172737475767778797a303132333435363738392b2fa2646970667358221220da0772045d5fb4880065d950698e4b01db618fcc88efc789002a8612ab86b0fa64736f6c6343000811003368747470733a2f2f6578616d706c652e636f6d2f6170692f3f746f6b656e49643d",
  "linkReferences": {},
  "deployedLinkReferences": {}
}